:020000040800F2
:1000000000400020B112000801130008011300088D
:10001000011300080113000801130008000000008C
:1000200000000000000000000000000001130008B4
:100030000113000800000000011300080D02000871
:100040000113000801130008011300080113000840
:100050000113000801130008011300080113000830
:100060000113000801130008011300080113000820
:100070000113000801130008011300080113000810
:100080000113000801130008011300080902000809
:100090000502000801020008FD0100080113000824
:1000A00001130008011300080113000801130008E0
:1000B0000113000800000000000000000113000808
:1000C00001130008011300080113000800000000DC
:1000D00001130008011300080113000801130008B0
:1000E00001130008011300080113000800000000BC
:1000F0000000000000000000000000000000000000
:1001000000000000000000000000000001130008D3
:1001100000000000000000000113000800000000C3
:1001200000000000000000000000000000000000CF
:1001300000000000000000000000000000000000BF
:100140000113000801130008000000000000000077
:10015000000000000000000000000000000000009F
:10016000011300080113000801130008011300081F
:100170000113000800000000000000000000000063
:0801800000000000011300085B
:1001880010B5054C237833B9044B13B10448AFF3C9
:1001980000800123237010BD08000020000000002B
:1001A80050130008084B10B51BB108480849AFF3B5
:1001B80000800848036803B910BD074B002BFBD02B
:1001C800BDE81040184700BF0000000050130008A9
:1001D8000C0000200400002000000000D0400B1C90
:1001E800D1409C46203AD34018435242634693403C
:1001F8001843704700F0E6BD00F0E4BD00F0E2BD32
:1002080000F0E0BD024A136801331360704700BF75
:1002180034090020F0B54C4F3A6B40F28E731360EE
:100228000123136197F839305061012B04D097F8F6
:100238003930222B40F0878097F83810424B01293B
:1002480000F08180012483F838401B6899684E01CA
:1002580006D499680D0106D49968C90002D4F0BD86
:10026800002400E0022424011919D668D1F880512D
:1002780005F00105C1F8805195684DB9D1F8805154
:10028800354345F0714545F44005C1F8805109E012
:10029800D1F880E14EEA05052E43556846EAC506C1
:1002A800C1F88061D1F88451D66925F00F05C1F8ED
:1002B8008451D1F8845145F00105C1F88451156A7B
:1002C8002D0645EA064596691C4445EA0625284355
:1002D800C4F8880104F5C475D46A106B240444EA90
:1002E8000064506A926A204340EA0220686097F8E6
:1002F8003900154A22280CBF3220122082F8390012
:1003080000227A8787F838205A6942F480725A6145
:100318005A6942F400725A615A6942F480625A6119
:100328005A6942F400625A615A6942F400425A61B9
:100338005A6942F001025A61D1F8803143F0010351
:10034800C1F88031F0BDF0BDF8080020094B0A481B
:100358001B680360094B1B6883F30888084B4FF040
:10036800FF31002219611A61D960DA6099629A62D4
:1003780003681847041800089400002000180008B3
:1003880000100240BFB5BD4ABD491368BD4CBE4E02
:1003980043F010031360CB684FF6FF021A40BB4BC3
:1003A8001343CB6000F066FE636803F00C03042B74
:1003B80007D0636803F00C03082B1CD16368DF03C4
:1003C80019D54FF4003292FAA2F3B3FA83F343F04B
:1003D8002003C3F34213012B01D1236804E092FAEE
:1003E800A2F2B2FA82F2636A4FF4003393FAA3F3EB
:1003F800B3FA83F35CE0A64900230B7030684FF42E
:10040800003292FAA2F3B3FA83F343F02003C3F362
:100418004213012B01D1256804E092FAA2F2B2FA44
:1004280082F2656A4FF4003393FAA3F3B3FA83F3C5
:10043800012203F01F0302FA03F32B420BD03368A7
:1004480041F288321B1A9342D9D98C4A13685D0746
:1004580000F08A80CAE00A70E36A23F00F03E362BF
:1004680031684FF4003292FAA2F3B3FA83F343F0FF
:100478002003C3F34213012B01D1206804E092FA50
:10048800A2F2B2FA82F2606A4FF4003393FAA3F34D
:10049800B3FA83F3012203F01F0302FA03F30342C2
:1004A80006D1336841F288325B1A9342D9D9CCE736
:1004B800636803F00C03082BC7D0764A0023136047
:1004C80030684FF0007191FAA1F3B3FA83F343F067
:1004D8002003C3F34213012B01D1256804E091FAEC
:1004E800A1F1B1FA81F1656A4FF0007393FAA3F3B1
:1004F800B3FA83F3012103F01F0301FA03F32B423C
:1005080004D033681B1A642BDBD99EE7636823F495
:10051800741343F488136360116031684FF00072FC
:1005280092FAA2F3B3FA83F343F02003C3F342131E
:10053800012B01D1206804E092FAA2F2B2FA82F209
:10054800606A4FF0007393FAA3F3B3FA83F30122BE
:1005580003F01F0302FA03F303427FF476AF336814
:100568005B1A642BDAD970E7136823F0070343F0AA
:1005780001031360136803F00703012B40F0928016
:100588006368404923F0F00363604FF0007393FA07
:10059800A3F2B2FA82F242F02002C2F34212012A16
:1005A80001D1096804E093FAA3F2B2FA82F2496A27
:1005B80093FAA3F3B3FA83F3012203F01F0302FAB9
:1005C80003F30B426ED0636823F0030343F0020386
:1005D80063603268636803F00C03082B3BD0336810
:1005E80041F288319B1A8B42F4D95BE06368254954
:1005F80023F0F00363604FF0007393FAA3F2B2FAAA
:1006080082F242F02002C2F34212012A30D1096874
:1006180093FAA3F3B3FA83F3012203F01F0302FA58
:1006280003F30B423ED0636823F0030343F0020355
:1006380063603268636803F00C03082B2CD10F4AFF
:10064800136823F0070343F001031360136803F0F2
:100658000703012B26D1636823F4E06343F4806326
:100668006360636823F46053636000F003FD19E07E
:1006780093FAA3F2B2FA82F2496AC9E7002002406B
:1006880000ED00E000100240340900200003FA05E4
:100698000210024060004242336841F288319B1ADE
:1006A8008B42C7D900F084FC4FF47A73B0FBF3F0A7
:1006B8000138B0F1807F09D2AB4BAC4A5860F021C9
:1006C80082F8231000229A6007221A60A64A13684B
:1006D80043F0040313604FF0FF3000F0B3FCA3496C
:1006E800CB684FF6FF021A40A14B1343CB60E36976
:1006F80043F00073E361636943F4003363614FF4CB
:10070800C0530193032300250227049301A809235A
:1007180003950593029700F0CDFC964B964A9D6091
:10072800062159604FF4403119614FF400115961A5
:100738000121DD609D61D9611D6259629D6293F856
:100748003910DD6283F8397011681D6321F00201E8
:100758001A601160116841F00101116031681D468D
:10076800854B5A68D00705D433685B1AB3F1807F8C
:10077800F6D32AE05A68D10730D51A6822F08002E9
:100788001A601A6842F040021A601A6822F02002C1
:100798001A601A6842F010021A601A6822F00802F9
:1007A8001A601A6822F004021A60744ADA611A6838
:1007B80022F001021A6031686F4B5A68D20706D5D9
:1007C80033685B1AB3F1807FF6D3032307E05B68D5
:1007D80013F0010302D16B87012300E0042385F89D
:1007E8003930654B664FD3F8002242F00102C3F856
:1007F8000022D3F81C2222F00102C3F81C22D3F8ED
:100808000C2222F00102C3F80C220022C3F8402275
:100818002022C3F84422D3F8042242F00102C3F88C
:100828000422D3F8142222F00102C3F81422D3F8C8
:100838001C2242F00102C3F81C22D3F8002222F045
:100848000102C3F80022132000F0FCFB4FF4002340
:100858003B60142000F0F6FB4FF480133B6015203A
:1008680000F0F0FB4FF400133B60162000F0EAFBA9
:100878004FF480033B606369424A43F0400363617D
:10088800414B597F1A6002215977197931B93F498B
:100898005161916821F0180191601DE09F68DA6844
:1008A8001F2101208840384203D111F1FF31F8D2CD
:1008B80052E0102A07D0182A03D0082A05D10F2998
:1008C80002E0062900E007291DD82E494F618868F3
:1008D80020F0180002438A6059792A4A11B94FF06A
:1008E800FF3101E0284909691161916821F0600030
:1008F800596901439160916821F080009969014329
:10090800916001225A77636943F4003363614FF4BD
:10091800806301930123029301A8002303930493A6
:1009280000F0C8FB1A4B2B631A4B6B6300F054FCA6
:10093800C8234FF090414A6982F480624A61316865
:100948003268521A642AFBD3013BF2D1124B1B784E
:100958000BB9FFF7FBFCFEE7102AD4D0182AD2D037
:10096800082AB2D1CFE700BF10E000E000ED00E0B8
:100978000003FA05F8080020006400400500230081
:1009880000E100E00030024098000020B71DC104DB
:100998002400002058000020D10000202DE9F74F46
:1009A800A9490A684B6B02EB0014D4F8B05105F062
:1009B80004059D6025B9D4F8B0516D0D1D6003E0A4
:1009C800D4F8B051ED085D60D4F8B05105F00205D7
:1009D800DD60D4F8B451D4F8B441C4F307245C639F
:1009E80002EB001405F00F05D4F8B8611D61F6B2EA
:1009F8005E61D4F8B861C6F3072604F5DC759E611C
:100A0800D4F8B861D4F8B841240E1C626C68E4B21A
:100A18005C626C68C4F307249C626C68C4F3074486
:100A2800DC626C68C6F30746240EDE611C6338B9C5
:100A3800D06840F02000D060506920F0020006E045
:100A4800106940F020001061506920F010005061DA
:100A580091F83920222A15D17B4A1268506920F46E
:100A680080705061506920F400705061506920F422
:100A780080605061506920F400605061506920F432
:100A88000040506191F839106F4A32290CBF122189
:100A9800012182F839106D4A11780229164640F072
:100AA80049816B4A6B4D10681C69284403F114078F
:100AB8000021A14205D017F801E000F801E001315A
:100AC800F7E711681B690B4413601368B3F5006FEF
:100AD80040F05C81604B4FF48012C3F880204FF4E3
:100AE8000012C3F880205D4A536983F020035361E4
:100AF8005B4A137F012B4FF002033CD053771368F6
:100B080001211177996841F001019960116A022960
:100B18001FD0032905D0012928D1524901F50077B2
:100B280007E00021685818600431B1F5006FF9D169
:100B38001AE0087811F8014C000440EA04608C7847
:100B480020434C78043140EA0420B9421860F0D1BF
:100B58000AE0002168186C5A4088043140EA0440D1
:100B6800B1F5806F1860F5D11B6800E00023012102
:100B78005177002111773C4A1268934240F0CD80AA
:100B88003A4B1F781D2F00F2C880394B394C1A692F
:100B9800100641BF384A5A6002F188325A60374A13
:100BA8000023FF02117E236007F10067012307F588
:100BB800C05799426760A360A246904663D01376F7
:100BC80000F046FB00285BD12368012B16D1284C86
:100BD8003423E360236943F004032361236943F06A
:100BE8004003236100F034FBE368990644BF2023E7
:100BF800E360236923F00403236141E0D4F80490FF
:100C0800DAF80820DAF8043003EBC223994537D222
:100C1800174C3423E360236943F002032361C4F8CB
:100C28001490236943F04003236100F011FBE3684B
:100C38009A0644BF2023E360236923F0020323615B
:100C4800F0B909F50069DBE7F8080020D1000020B9
:100C5800BC000020D200002000E100E000040048B1
:100C680098000020D3000020CC000020D0000020F5
:100C780000200240C000002023016745D80800205A
:100C8800002388F818304FF0000A55F80A3001930D
:100C980098F81830012B34D0424B01221A7600F014
:100CA800D7FA18B1002388F818302AE007EB0A0BA6
:100CB8000446DFF8F490019822460021FFF78EFAE7
:100CC8003422C9F80C20D9F8102080B242F0010271
:100CD800C9F81020ABF8000000F0BAFAD9F80C20D7
:100CE800930644BF2022C9F80C20D9F810201034EC
:100CF80022F00102202CC9F810200BF1020BD8D1E8
:100D0800D0E70AF1040ABAF5006FBED1264A136982
:100D180043F080031361012000E00220FFF77AFA14
:100D280001233370214B4FF400121A604FF48012E4
:100D38001A602BE05869022807D0032821D001281F
:100D480024D11070FFF766FA20E01278012A1DD12D
:100D580000221748002111540132B2F5006FF8D172
:100D6800144A187F1070587F5070987F9070D87F01
:100D7800D0709A69104B1A70022333700F4B1960A8
:100D880004E00120FFF746FAFFF7E0FA0C4A53693E
:100D980083F04003536100F01FFA002003B0BDE860
:100DA800F08F00BFD80800200020024000E100E0DA
:100DB800D2000020CC000020D0000020BC00002081
:100DC8000004004810B55F4C23685A69D20736D52D
:100DD80099685D4A0A405C498A420BD099685B4A27
:100DE8000A405A498A4205D09968594A0A405849DE
:100DF8008A4224D15A6922F001025A6194F83920B2
:100E0800122A13D15A6922F480725A615A6922F45B
:100E180000725A615A6922F480625A615A6922F44E
:100E280000625A615A6922F400425A6194F83910F2
:100E3800444A32290CBF2221012182F839105A690B
:100E4800900705D5DB68990702D00020FFF7A6FDBB
:100E580023685A69D20605D51B699B0702D0012071
:100E6800FFF79CFD236837499A69D0070AD55A6964
:100E7800D20507D55A69100441BF4A8F92B242F091
:100E880001024A879A6991070AD55A69920507D5D6
:100E98005A69100441BF628F92B242F0020262871F
:100EA8009A6951070AD55A69520507D55A69100433
:100EB80041BF628F92B242F0040262879A6912F0CF
:100EC800700F37D05A69110534D55A69120431D5D3
:100ED8009A6902F07002302A19D008D8102A11D065
:100EE800202A23D1628F92B242F010021DE0502ACC
:100EF80012D0602A15D0402A18D1628F92B242F0DF
:100F0800400212E0628F92B242F008020DE0628F56
:100F180092B242F0200208E0628F92B242F0800260
:100F280003E0628F92B242F4807262879A6922F07B
:100F380070029A61638F9BB21BB1024B012283F846
:100F4800392010BDF8080020030000040003000841
:100F580000000310124B1A6842F001021A60596827
:100F6800104A0A405A601A6822F0847222F48032C9
:100F78001A601A6822F480221A605A6822F4FE0263
:100F88005A60DA6A22F00F02DA62196B064A0A40DE
:100F98001A6300229A60054B4FF000629A6070470E
:100FA800001002400CC07FF8CCFC00FF00ED00E010
:100FB8001D4910B54C6804F00C03082B21D14FF4DF
:100FC800701393FAA3F3B3FA83F304F47012DBB249
:100FD80022FA03F3154AC86AD35C0F2292FAA2F2E6
:100FE800B2FA82F200F00F00D2B220FA02F21048F0
:100FF800805CE20352BF0F480F4AB2FBF0F058433F
:1010080000E00D484A68F02393FAA3F3B3FA83F398
:1010180002F0F002DBB222FA03F3084AD35CD840AC
:10102800074B186010BD00BF00100240881300086D
:101038007813000800093D0000127A0068130008C0
:10104800000000200028094BA8BF00F16040DB68C1
:10105800BBBF074B00F00F0000F561400022AABF9C
:1010680000231A5480F80033704700BF00ED00E0F9
:1010780014ED00E008B5FFF79BFF4FF47A73B0FB5F
:10108800F3F00138B0F1807F09D2084B084A586064
:10109800F02182F8231000229A6007221A604FF08C
:1010A800FF30FFF7CFFF002008BD00BF10E000E0D1
:1010B80000ED00E02DE9F0410668002301229A4086
:1010C80002EA060494427CD1416821F0100EBEF178
:1010D800020F12D1DA08920002F1904203F00707DA
:1010E800156ABF004FF00F0C0CFA07FC25EA0C0C30
:1010F8000569BD404CEA050515624FF090454FEA79
:10110800430C03222F6802FA0CF2D24302EA0708C2
:1011180001F0030707FA0CF70EF1FF3E48EA07074C
:10112800BEF1010F2F6011D8AF6802EA070EC76839
:1011380007FA0CF74EEA0707AF606F6827EA040E54
:10114800C1F300179F404EEA07076F604FF09047C2
:10115800FD682A40FA60CA0033D51D4DAA6942F0DD
:101168000102AA6123F0030202F1804202F58032F3
:1011780003F0030E97684FEA8E0E0F2505FA0EF559
:1011880027EA05059560134A1568E74311F4803F7F
:1011980014BF25433D401560556811F4003F14BF46
:1011A80025433D405560956811F4801F14BF2543C1
:1011B8003D409560D568890254BF07EA05042C4371
:1011C800D4600133102B7FF479AFBDE8F08100BF04
:1011D80000100240000401401C4B93F83920012AFA
:1011E8001A4603D093F83930122B2DD192F83810C3
:1011F800164B012928D0012183F8381093F83910AB
:1012080012290CBF3221222183F8391000201368DB
:101218005087596941F480715961596941F40071E5
:101228005961596941F480615961596941F4006112
:101238005961596941F40041596182F838005A6985
:1012480042F002025A61704702207047F8080020F5
:10125800124B1868124AD168C90707D51A684CF2A8
:101268005031121A8A42F5D903207047D368D9063B
:1012780003D4D06810F004000FD0094BDA68D20606
:1012880042BF084A02215176DB685B0704D5054A4C
:10129800537E43F001035376012070473409002040
:1012A80000200240D8080020DFF834D0002103E0F5
:1012B8000C4B5B58435004310B480C4B42189A4274
:1012C800F6D30B4A02E0002342F8043B094B9A424A
:1012D800F9D3FFF73FFE00F011F8FFF753F8FEE7E8
:1012E80000400020A0130008000000200400002097
:1012F8000800002038090020FEE7000070B50E4BFA
:101308000E4CE41AA41000251E46A54204D056F837
:10131800253098470135F8E700F016F8084C094BD6
:10132800E41AA41000251E46A54204D056F825301C
:1013380098470135F8E770BD98130008981300081E
:101348009C13000898130008F8B500BFF8BC08BC47
:101358009E467047F8B500BFF8BC08BC9E4670476B
:101368000000000001020304010203040607080943
:101378000102030405060708090A0B0C0D0E0F10DD
:1013880002030405060708090A0B0C0D0E0F1010BE
:04139800AD0100089B
:04139C0089010008BB
:0413A00000127A00BD
:04000005080012B12C
:00000001FF
